:020000040800F2
:10000000000002202D3A0008E9380008F7380008FF
:10001000FD38000803390008093900080000000015
:100020000000000000000000000000000F39000880
:100030001D390008000000002B390008393900087C
:100040007D3A00087D3A00087D3A00087D3A0008B4
:100050007D3A00087D3A00087D3A00087D3A0008A4
:100060007D3A00087D3A00087D3A00087D3A000894
:100070007D3A00087D3A00087D3A00087D3A000884
:100080007D3A00087D3A00087D3A00087D3A000874
:100090007D3A00087D3A00087D3A00087D3A000864
:1000A0007D3A00087D3A00087D3A00087D3A000854
:1000B0007D3A00087D3A00087D3A00087D3A000844
:1000C0007D3A00087D3A00087D3A00087D3A000834
:1000D0007D3A00087D3A00087D3A00087D3A000824
:1000E0007D3A00087D3A00087D3A00087D3A000814
:1000F0007D3A00087D3A00087D3A00087D3A000804
:100100007D3A00087D3A00087D3A00087D3A0008F3
:100110007D3A00087D3A00087D3A00087D3A0008E3
:10012000453900087D3A00087D3A00087D3A00080C
:100130007D3A000800000000000000007D3A000841
:100140007D3A00087D3A00087D3A00087D3A0008B3
:100150007D3A00087D3A00087D3A00087D3A0008A3
:100160007D3A00087D3A00087D3A00087D3A000893
:100170007D3A00087D3A00087D3A00080000000042
:10018000000000007D3A00080000000000000000B0
:100190007D3A000800000000000000007D3A0008E1
:1001A0000000000000000000000000007D3A000890
:1001B0007D3A00087D3A00087D3A00087D3A000843
:0401C0007D3A00087C
:1001D00010B5054C237833B9044B13B10448AFF381
:1001E00000800123237010BDE40100200000000006
:1001F000706E000808B5034B1BB103490348AFF309
:10020000008008BD00000000E8010020706E0008BA
:1002100081F0004102E000BF83F0004330B54FEAB7
:1002200041044FEA430594EA050F08BF90EA020F24
:100230001FBF54EA000C55EA020C7FEA645C7FEAB7
:10024000655C00F0E2804FEA5454D4EB5555B8BFDA
:100250006D420CDD2C4480EA020281EA030382EA4B
:10026000000083EA010180EA020281EA0303362DDD
:1002700088BF30BD11F0004F4FEA01314FF4801CB0
:100280004CEA113102D0404261EB410113F0004FC2
:100290004FEA03334CEA133302D0524263EB430379
:1002A00094EA050F00F0A780A4F10104D5F1200E17
:1002B0000DDB02FA0EFC22FA05F2801841F1000172
:1002C00003FA0EF2801843FA05F359410EE0A5F146
:1002D00020050EF1200E012A03FA0EFC28BF4CF077
:1002E000020C43FA05F3C01851EBE37101F000452D
:1002F00007D54FF0000EDCF1000C7EEB00006EEB3A
:100300000101B1F5801F1BD3B1F5001F0CD34908C3
:100310005FEA30004FEA3C0C04F101044FEA44521A
:1003200012F5800F80F09A80BCF1004F08BF5FEAA1
:10033000500C50F1000041EB045141EA050130BD81
:100340005FEA4C0C404141EB010111F4801FA4F124
:100350000104E9D191F0000F04BF01460020B1FA79
:1003600081F308BF2033A3F10B03B3F120020CDAB1
:100370000C3208DD02F1140CC2F10C0201FA0CF08F
:1003800021FA02F10CE002F11402D8BFC2F1200CF4
:1003900001FA02F120FA0CFCDCBF41EA0C019040AA
:1003A000E41AA2BF01EB0451294330BD6FEA0404F3
:1003B0001F3C1CDA0C340EDC04F11404C4F12002DE
:1003C00020FA04F001FA02F340EA030021FA04F3F0
:1003D00045EA030130BDC4F10C04C4F1200220FA47
:1003E00002F001FA04F340EA0300294630BD21FA85
:1003F00004F0294630BD94F0000F83F4801306BF4B
:1004000081F480110134013D4EE77FEA645C18BF3E
:100410007FEA655C29D094EA050F08BF90EA020FD5
:1004200005D054EA000C04BF1946104630BD91EACD
:10043000030F1EBF0021002030BD5FEA545C05D1D0
:100440004000494128BF41F0004130BD14F580040F
:100450003CBF01F5801130BD01F0004545F0FE4183
:1004600041F470014FF0000030BD7FEA645C1ABFB8
:10047000194610467FEA655C1CBF0B46024650EAEF
:10048000013406BF52EA033591EA030F41F400211B
:1004900030BD00BF90F0000F04BF0021704730B5A1
:1004A0004FF4806404F132044FF000054FF0000176
:1004B00050E700BF90F0000F04BF0021704730B537
:1004C0004FF4806404F1320410F0004548BF40420C
:1004D0004FF000013EE700BF42004FEAE2014FEA61
:1004E00031014FEA02701FBF12F07F4393F07F4F3C
:1004F00081F06051704732F07F4208BF704793F03F
:100500007F4F04BF41F40021704730B54FF4607451
:1005100001F0004521F000411CE700BF50EA010254
:1005200008BF704730B54FF000050AE050EA0102FD
:1005300008BF704730B511F0004502D5404261EB6D
:1005400041014FF4806404F132045FEA915C3FF4AE
:10055000D8AE4FF003025FEADC0C18BF03325FEA4B
:10056000DC0C18BF033202EBDC02C2F1200300FAFC
:1005700003FC20FA02F001FA03FE40EA0E0021FA21
:1005800002F11444BDE600BF70B54FF0FF0C4CF40F
:10059000E06C1CEA11541DBF1CEA135594EA0C0FC1
:1005A00095EA0C0F00F0DEF82C4481EA030621EAFC
:1005B0004C5123EA4C5350EA013518BF52EA033537
:1005C00041F4801143F4801338D0A0FB02CE4FF0E9
:1005D0000005E1FB02E506F00042E0FB03E54FF019
:1005E0000006E1FB03569CF0000F18BF4EF0010E11
:1005F000A4F1FF04B6F5007F64F5407404D25FEA0D
:100600004E0E6D4146EB060642EAC62141EA5551BF
:100610004FEAC52040EA5E504FEACE2EB4F1FD0C01
:1006200088BFBCF5E06F1ED8BEF1004F08BF5FEA7F
:10063000500E50F1000041EB045170BD06F0004631
:1006400046EA010140EA020081EA0301B4EB5C04DE
:10065000C2BFD4EB0C0541EA045170BD41F48011D6
:100660004FF0000E013C00F3AB8014F1360FDEBFFB
:10067000002001F0004170BDC4F10004203C35DAD7
:100680000C341BDC04F11404C4F1200500FA05F35A
:1006900020FA04F001FA05F240EA020001F00042FB
:1006A00021F0004110EBD37021FA04F642EB060171
:1006B0005EEA430E08BF20EAD37070BDC4F10C049B
:1006C000C4F1200500FA04F320FA05F001FA04F25F
:1006D00040EA020001F0004110EBD37041F100014B
:1006E0005EEA430E08BF20EAD37070BDC4F1200556
:1006F00000FA05F24EEA020E20FA04F301FA05F2BE
:1007000043EA020321FA04F001F0004121FA04F265
:1007100020EA020000EBD3705EEA430E08BF20EA35
:10072000D37070BD94F0000F0FD101F0004640006F
:1007300041EB010111F4801F08BF013CF7D041EAF1
:10074000060195F0000F18BF704703F000465200F5
:1007500043EB030313F4801F08BF013DF7D043EAC6
:100760000603704794EA0C0F0CEA135518BF95EA7C
:100770000C0F0CD050EA410618BF52EA4306D1D103
:1007800081EA030101F000414FF0000070BD50EA22
:10079000410606BF1046194652EA430619D094EAAC
:1007A0000C0F02D150EA013613D195EA0C0F05D196
:1007B00052EA03361CBF104619460AD181EA0301EA
:1007C00001F0004141F0FE4141F470014FF00000A2
:1007D00070BD41F0FE4141F4780170BD70B54FF03D
:1007E000FF0C4CF4E06C1CEA11541DBF1CEA1355BD
:1007F00094EA0C0F95EA0C0F00F0A7F8A4EB05049F
:1008000081EA030E52EA03354FEA013100F0888095
:100810004FEA03334FF0805545EA131343EA12635E
:100820004FEA022245EA111545EA10654FEA002613
:100830000EF000419D4208BF964244F1FD0404F5CC
:10084000407402D25B084FEA3202B61A65EB030528
:100850005B084FEA32024FF480104FF4002CB6EBE5
:10086000020E75EB030E22BFB61A754640EA0C0065
:100870005B084FEA3202B6EB020E75EB030E22BFA5
:10088000B61A754640EA5C005B084FEA3202B6EBE6
:10089000020E75EB030E22BFB61A754640EA9C00A5
:1008A0005B084FEA3202B6EB020E75EB030E22BF75
:1008B000B61A754640EADC0055EA060E18D04FEA33
:1008C000051545EA16754FEA06164FEAC30343EAD3
:1008D00052734FEAC2025FEA1C1CC0D111F4801FA0
:1008E0000BD141EA00014FF000004FF0004CB6E799
:1008F00011F4801F04BF01430020B4F1FD0C88BF38
:10090000BCF5E06F3FF6AFAEB5EB030C04BFB6EB42
:10091000020C5FEA500C50F1000041EB045170BD35
:100920000EF0004E4EEA113114EB5C04C2BFD4EB62
:100930000C0541EA045170BD41F480114FF0000EE6
:10094000013C90E645EA060E8DE60CEA135594EA62
:100950000C0F08BF95EA0C0F3FF43BAF94EA0C0F65
:100960000AD150EA01347FF434AF95EA0C0F7FF4DA
:1009700025AF104619462CE795EA0C0F06D152EA2E
:1009800003353FF4FDAE1046194622E750EA410612
:1009900018BF52EA43067FF4C5AE50EA41047FF423
:1009A0000DAF52EA43057FF4EBAE12E74FF0FF3C88
:1009B00006E000BF4FF0010C02E000BF4FF0010C59
:1009C0004DF804CD4FEA410C7FEA6C5C4FEA430CD2
:1009D00018BF7FEA6C5C1BD001B050EA410C0CBF21
:1009E00052EA430C91EA030F02BF90EA020F002083
:1009F000704710F1000F91EA030F58BF994208BFEA
:100A000090422CBFD8176FEAE37040F001007047A6
:100A10004FEA410C7FEA6C5C02D150EA013C07D1FD
:100A20004FEA430C7FEA6C5CD6D152EA033CD3D048
:100A30005DF8040B704700BF8446104662468C4642
:100A40001946634600E000BF01B5FFF7B7FF002875
:100A500048BF10F1000F01BD4DF808EDFFF7F4FF9E
:100A60000CBF012000205DF808FB00BF4DF808ED29
:100A7000FFF7EAFF34BF012000205DF808FB00BF4C
:100A80004DF808EDFFF7E0FF94BF012000205DF86E
:100A900008FB00BF4DF808EDFFF7CEFF94BF012023
:100AA00000205DF808FB00BF4DF808EDFFF7C4FF1C
:100AB00034BF012000205DF808FB00BF4FEA41026F
:100AC000B2F1E04324BFB3F5001CDCF1FE5C0DD9AC
:100AD00001F0004C4FEAC0024CEA5070B2F1004FF6
:100AE00040EB830008BF20F00100704711F0804FF9
:100AF00021D113F13872BCBF01F00040704741F4BE
:100B000080114FEA5252C2F11802C2F1200C10FAC1
:100B10000CF320FA02F018BF40F001004FEAC123A5
:100B20004FEAD32303FA0CFC40EA0C0023FA02F349
:100B30004FEA4303CCE77FEA625307D150EA01331F
:100B40001EBF4FF0FE4040F44000704701F00040EF
:100B500040F0FE4040F40000704700BF034613F829
:100B6000012B002AFBD1181A013870470000000041
:100B700001F0FF01102A2BDB10F0070F08D010F84E
:100B8000013B013A8B422DD010F0070F42B3F6D152
:100B9000F0B441EA012141EA014122F007047FF06B
:100BA00000070023F0E80256083C85EA010586EAC2
:100BB000010685FA47F5A3FA87F586FA47F6A5FAFE
:100BC00087F68EB9EED1F0BC01F0FF0102F007020A
:100BD00032B110F8013B013A83EA010313B1F8D1B5
:100BE0000020704701387047002D06BF3546033896
:100BF000073815F0010F07D1013015F4807F02BFCF
:100C0000013015F4C03F0130F0BC0138704700BF1F
:100C10004FEA410C7FEA6C5C02D150EA013C0AD1F8
:100C20004FEA430C7FEA6C5C02D152EA033C02D1EA
:100C30004FF0000070474FF0010070474FEA41024B
:100C400012F5001215D211D56FF47873B3EB62521E
:100C500012D94FEAC12343F0004343EA505311F045
:100C6000004F23FA02F018BF404270474FF00000D7
:100C7000704750EA013005D111F0004008BF6FF015
:100C8000004070474FF00000704700BF80B500AFD4
:100C90000E4B1B680D4A43F4007313600B4B1B682B
:100CA0000A4A43F480631360084B1B68074A43F405
:100CB00080731360032000F00DF9002000F008F8A5
:100CC00002F082FD0023184680BD00BF003C0240B8
:100CD00080B582B000AF7860124B1A68124B1B7857
:100CE00019464FF47A73B3FBF1F3B2FBF3F31846F2
:100CF00000F017F90346002B01D001230EE07B68BA
:100D00000F2B0AD8002279684FF0FF3000F0EDF881
:100D1000064A7B681360002300E001231846083769
:100D2000BD4680BD0C000020040000200000002013
:100D300080B400AF064B1B781A46064B1B68134461
:100D4000044A136000BFBD465DF8047B704700BFD6
:100D5000040000201402002080B400AF034B1B6885
:100D60001846BD465DF8047B704700BF14020020A2
:100D700080B485B000AF78607B6803F00703FB6048
:100D80000C4BDB68BB60BA684FF6FF031340BB60D7
:100D9000FB681A02BB68134343F0BF6343F400339C
:100DA000BB60044ABB68D36000BF1437BD465DF822
:100DB000047B704700ED00E080B400AF044BDB68BB
:100DC0001B0A03F007031846BD465DF8047B704715
:100DD00000ED00E080B483B000AF03463960FB71E2
:100DE00097F90730002B0ADB3B68DAB20C4997F918
:100DF00007301201D2B20B4483F800230AE03B68AB
:100E0000DAB20849FB7903F00F03043B1201D2B2B6
:100E10000B441A7600BF0C37BD465DF8047B704763
:100E200000E100E000ED00E080B489B000AFF860C0
:100E3000B9607A60FB6803F00703FB61FB69C3F1EB
:100E40000703042B28BF0423BB61FB690433062B73
:100E500002D9FB69033B00E000237B614FF0FF32C6
:100E6000BB6902FA03F3DA43BB681A407B699A4014
:100E70004FF0FF317B6901FA03F3D9437B680B40E4
:100E8000134318462437BD465DF8047B70470000C5
:100E900080B582B000AF78607B68013BB3F1807FA2
:100EA00001D301230FE00A4A7B68013B53600F2105
:100EB0004FF0FF30FFF78EFF054B00229A60044B86
:100EC00007221A60002318460837BD4680BD00BFC0
:100ED00010E000E080B582B000AF78607868FFF77E
:100EE00047FF00BF0837BD4680BD80B586B000AF64
:100EF0000346B9607A60FB7300237B61FFF75CFFF8
:100F000078617A68B9687869FFF78EFF024697F9C9
:100F10000F3011461846FFF75DFF00BF1837BD467A
:100F200080BD80B582B000AF78607868FFF7B0FF11
:100F3000034618460837BD4680BD000080B489B01E
:100F400000AF7860396000237B6100233B610023A0
:100F5000BB610023FB6165E10122FB6902FA03F337
:100F60007B613B681B687A6913403B613A697B6926
:100F70009A4240F054813B685B68022B03D03B6887
:100F80005B68122B23D1FB69DA087B68083253F8BF
:100F90002230BB61FB6903F007039B000F2202FABA
:100FA00003F3DB43BA691340BB613B681A69FB6911
:100FB00003F007039B0002FA03F3BA691343BB6112
:100FC000FB69DA087B680832B96943F822107B684C
:100FD0001B68BB61FB695B00032202FA03F3DB437E
:100FE000BA691340BB613B685B6803F00302FB69AD
:100FF0005B0002FA03F3BA691343BB617B68BA6909
:101000001A603B685B68012B0BD03B685B68022B66
:1010100007D03B685B68112B03D03B685B68122BE1
:1010200030D17B689B68BB61FB695B00032202FADD
:1010300003F3DB43BA691340BB613B68DA68FB69C1
:101040005B0002FA03F3BA691343BB617B68BA69B8
:101050009A607B685B68BB610122FB6902FA03F35B
:10106000DB43BA691340BB613B685B681B0903F053
:101070000102FB6902FA03F3BA691343BB617B689F
:10108000BA695A607B68DB68BB61FB695B0003225D
:1010900002FA03F3DB43BA691340BB613B689A6809
:1010A000FB695B0002FA03F3BA691343BB617B6817
:1010B000BA69DA603B685B6803F08053002B00F08C
:1010C000AE800023FB605C4B5B6C5B4A43F4804367
:1010D0005364594B5B6C03F48043FB60FB68574AD5
:1010E000FB699B08023352F82330BB61FB6903F0B4
:1010F00003039B000F2202FA03F3DB43BA69134098
:10110000BB617B684E4A934225D07B684D4A93422F
:101110001FD07B684C4A934219D07B684B4A93425C
:1011200013D07B684A4A93420DD07B68494A934268
:1011300007D07B68484A934201D106230CE007237D
:101140000AE0052308E0042306E0032304E0022369
:1011500002E0012300E00023FA6902F0030292009A
:101160009340BA691343BB613449FB699B0802335E
:10117000BA6941F82320394B1B68BB613B69DB43EB
:10118000BA691340BB613B685B6803F48033002B92
:1011900003D0BA693B691343BB61304ABB69136032
:1011A0002E4B5B68BB613B69DB43BA691340BB6193
:1011B0003B685B6803F40033002B03D0BA693B69DA
:1011C0001343BB61254ABB695360244B9B68BB61D9
:1011D0003B69DB43BA691340BB613B685B6803F45E
:1011E0008013002B03D0BA693B691343BB611B4AD0
:1011F000BB699360194BDB68BB613B69DB43BA6930
:101200001340BB613B685B6803F40013002B03D001
:10121000BA693B691343BB61104ABB69D360FB6980
:101220000133FB61FB690F2B7FF696AE00BF2437BD
:10123000BD465DF8047B704700380240003801402D
:10124000000002400004024000080240000C02407E
:10125000001002400014024000180240003C01400F
:1012600080B400AF034B1B681846BD465DF8047B95
:10127000704700BF0C00002080B500AFFFF7F0FF03
:101280000146054B9B689B0A03F00703034AD35CA6
:1012900021FA03F3184680BD00380240006F0008B1
:1012A00080B500AFFFF7DCFF0146054B9B685B0B89
:1012B00003F00703034AD35C21FA03F3184680BD09
:1012C00000380240006F000880B582B000AF78603F
:1012D0007B68002B01D101233FE07B6893F8393014
:1012E000DBB2002B06D17B68002283F838207868B7
:1012F00002F092FA7B68242283F839207B681B680D
:10130000DA687B681B6822F40052DA60786800F0C3
:101310000BF97B681B681A697B681B6822F4904292
:101320001A617B681B685A697B681B6822F02A0275
:101330005A617B681B68DA687B681B6842F400525C
:10134000DA607B680022DA637B68202283F8392028
:101350007B68202283F83A20002318460837BD46D0
:1013600080BD80B588B002AFF860B9603B601346BD
:10137000FB8000237B61FB6893F83930DBB2202BC4
:1013800040F08380BB68002B02D0FB88002B01D18A
:1013900001237BE0FB6893F83830012B01D1022355
:1013A00074E0FB68012283F83820FB680022DA63CE
:1013B000FB68212283F83920FFF7CEFC7861FB68B7
:1013C000FA889A84FB68FA88DA8442E0FB68DB8C4E
:1013D0009BB2013B9AB2FB68DA84FB689B68B3F569
:1013E000805F22D13B6800937B6900228021F868EE
:1013F00000F050F80346002B01D0032346E0BB6801
:101400003B613B691B881A46FB681B68C2F30802F4
:101410005A60FB681B69002B03D1BB680233BB60B9
:1014200017E0BB680133BB6013E03B6800937B6946
:1014300000228021F86800F02DF80346002B01D02F
:10144000032323E0BB685A1CBA601A78FB681B6848
:101450005A60FB68DB8C9BB2002BB7D13B680093D2
:101460007B6900224021F86800F014F80346002B45
:1014700001D003230AE0FB68202283F83920FB68AF
:10148000002283F83820002300E002231846183792
:10149000BD4680BD80B584B000AFF860B9603B60E8
:1014A0001346FB712CE0BB69B3F1FF3F28D0BB6949
:1014B000002B07D0FFF750FC02463B68D31ABA69ED
:1014C0009A421DD2FB681B68DA68FB681B6822F42D
:1014D000D072DA60FB681B685A69FB681B6822F0EF
:1014E00001025A61FB68202283F83920FB68202220
:1014F00083F83A20FB68002283F8382003230FE0AA
:10150000FB681B681A68BB681340BA689A420CBF34
:1015100001230023DBB21A46FB799A42C3D0002391
:1015200018461037BD4680BDB0B584B000AF7860B6
:101530007B681B681B6923F440517B68DA687B6811
:101540001B680A431A617B689A687B681B691A43A7
:101550007B685B691A437B68DB691343FB607B68CC
:101560001B68DB6823F4164323F00C037A681268C7
:10157000F9680B43D3607B681B685B6923F4407197
:101580007B689A697B681B680A435A617B68DB69E0
:10159000B3F5004F40F0E4807B681B68AB4A934290
:1015A00004D07B681B68AA4A93426CD1FFF778FE8F
:1015B000024613469B0013449A001A447B685B68FA
:1015C0005B00B2FBF3F3A34AA2FB03235B091C01FC
:1015D000FFF766FE024613469B0013449A001A4426
:1015E0007B685B685B00B2FBF3F5FFF759FE0246D0
:1015F00013469B0013449A001A447B685B685B00A7
:10160000B2FBF3F3934AA2FB03235B09642202FBC0
:1016100003F3EB1ADB0032338E4AA2FB03235B0990
:101620005B0003F4F8731C44FFF73AFE02461346CE
:101630009B0013449A001A447B685B685B00B2FB12
:10164000F3F5FFF72DFE024613469B0013449A0064
:101650001A447B685B685B00B2FBF3F37D4AA2FB34
:1016600003235B09642202FB03F3EB1ADB00323332
:10167000784AA2FB03235B0903F007027B681B681F
:1016800022449A6054E1FFF7F7FD024613469B009F
:1016900013449A001A447B685B685B00B2FBF3F367
:1016A0006C4AA2FB03235B091C01FFF7E5FD024620
:1016B00013469B0013449A001A447B685B685B00E6
:1016C000B2FBF3F5FFF7D8FD024613469B00134427
:1016D0009A001A447B685B685B00B2FBF3F35D4AD7
:1016E000A2FB03235B09642202FB03F3EB1ADB007A
:1016F0003233584AA2FB03235B095B0003F4F873FF
:101700001C44FFF7B9FD024613469B0013449A00A0
:101710001A447B685B685B00B2FBF3F5FFF7ACFD36
:10172000024613469B0013449A001A447B685B6888
:101730005B00B2FBF3F3474AA2FB03235B0964227D
:1017400002FB03F3EB1ADB003233424AA2FB032312
:101750005B0903F007027B681B6822449A60E7E09C
:101760007B681B68394A934204D07B681B68384AFF
:10177000934271D1FFF794FD024613469B00134438
:101780009A001A447B685B689B00B2FBF3F3314A12
:10179000A2FB03235B091C01FFF782FD02461346EF
:1017A0009B0013449A001A447B685B689B00B2FB61
:1017B000F3F5FFF775FD024613469B0013449A00AC
:1017C0001A447B685B689B00B2FBF3F3214AA2FBDF
:1017D00003235B09642202FB03F3EB1A1B01323380
:1017E0001C4AA2FB03235B0903F0F0031C44FFF730
:1017F00057FD024613469B0013449A001A447B6827
:101800005B689B00B2FBF3F5FFF74AFD0246134607
:101810009B0013449A001A447B685B689B00B2FBF0
:10182000F3F30C4AA2FB03235B09642202FB03F3DC
:10183000EB1A1B013233074AA2FB03235B0903F0B7
:101840000F027B681B6822449A6071E0001001401F
:10185000001401401F85EB51FFF70EFD02461346B1
:101860009B0013449A001A447B685B689B00B2FBA0
:10187000F3F3314AA2FB03235B091C01FFF7FCFCD5
:10188000024613469B0013449A001A447B685B6827
:101890009B00B2FBF3F5FFF7EFFC024613469B00FB
:1018A00013449A001A447B685B689B00B2FBF3F315
:1018B000214AA2FB03235B09642202FB03F3EB1A18
:1018C0001B0132331C4AA2FB03235B0903F0F00324
:1018D0001C44FFF7D1FC024613469B0013449A00B8
:1018E0001A447B685B689B00B2FBF3F5FFF7C4FC0E
:1018F000024613469B0013449A001A447B685B68B7
:101900009B00B2FBF3F30C4AA2FB03235B096422A6
:1019100002FB03F3EB1A1B013233074AA2FB03233A
:101920005B0903F00F027B681B6822449A60FFE7A3
:1019300000BF1037BD46B0BD1F85EB5180B483B0EA
:1019400000AF786039607B68DB6A23F470023B6823
:101950001A437B68DA6200BF0C37BD465DF8047B32
:10196000704780B483B000AF78607B689B6803F0F9
:101970000103012B0CBF01230023DBB218460C37F7
:10198000BD465DF8047B704790B585B000AF7860C8
:1019900039600023FB731C48FFF7E3FF04461B4834
:1019A000FFF7DFFF03461C431948FFF7DAFF034642
:1019B0002343002B20D13B685B68002B12D07B684F
:1019C0005A68144B13403A6811683A6852681143D8
:1019D0003A68926811433A68D2680A431A437B68AE
:1019E0005A600BE07B685A680A4B13403A681268E9
:1019F0001A437B685A6001E00123FB73FB7B1846A6
:101A00001437BD4690BD00BF0020014000210140B9
:101A100000220140E010FCFF80B584B000AF786088
:101A200039600023FB737868FFF79BFF0346002BA8
:101A300017D17B685B6823F0407323F480733A68A6
:101A400011683A6892680A431A437B685A607B6857
:101A50009B6823F400623B685B681A437B689A606A
:101A600001E00123FB73FB7B18461037BD4680BDA8
:101A700080B584B000AF786039600023FB7378686C
:101A8000FFF76FFF0346002B31D13B685B68002BEB
:101A90000CD07B685B6823F468423B6859683B68FC
:101AA0009B680B431A437B685A6008E07B685B685D
:101AB00023F468423B685B681A437B685A607B6822
:101AC0009A680E4B13403A68126802F070613A68E7
:101AD000D26811433A6812690A431A437B689A60D4
:101AE0003B685B6819467868FFF728FF01E001232F
:101AF000FB73FB7B18461037BD4680BDFDFCFFC065
:101B000080B483B000AF7860054B1A6804497B68E5
:101B100013430B6000BF0C37BD465DF8047B704774
:101B2000003C014080B483B000AF7860064B1A6877
:101B30007B68DB43044913400B6000BF0C37BD4694
:101B40005DF8047B704700BF003C014080B483B067
:101B500000AF7860054B5A6804497B6813434B60BB
:101B600000BF0C37BD465DF8047B7047003C014068
:101B700080B483B000AF7860064B5A687B68DB4363
:101B8000044913404B6000BF0C37BD465DF8047B31
:101B9000704700BF003C014080B483B000AF786064
:101BA000054B9A6804497B6813438B6000BF0C3770
:101BB000BD465DF8047B7047003C014080B483B0B3
:101BC00000AF7860064B9A687B68DB43044913409A
:101BD0008B6000BF0C37BD465DF8047B704700BFCB
:101BE000003C014080B483B000AF7860054BDA68F8
:101BF00004497B681343CB6000BF0C37BD465DF8DA
:101C0000047B7047003C014080B483B000AF786033
:101C1000064BDA687B68DB4304491340CB6000BFA6
:101C20000C37BD465DF8047B704700BF003C0140A7
:101C300080B584B000AF78600023FB737B681B79AC
:101C4000002B60D07B681B68002B67D07B685B79BA
:101C5000012B0ED0022B17D0002B20D17B681B68E4
:101C60001846FFF785FF7B681B681846FFF748FF9B
:101C700018E07B681B681846FFF754FF7B681B68F9
:101C80001846FFF763FF0DE07B681B681846FFF7F7
:101C900037FF7B681B681846FFF758FF02E00123F7
:101CA000FB7300BF7B689B79002B37D07B689B79E7
:101CB000022B0ED0032B17D0012B20D17B681B6881
:101CC0001846FFF7A1FF7B681B681846FFF764FF03
:101CD00025E07B681B681846FFF770FF7B681B6870
:101CE0001846FFF77FFF1AE07B681B681846FFF76E
:101CF00053FF7B681B681846FFF774FF0FE0012352
:101D0000FB7300BF0BE07B681B681846FFF70AFFF8
:101D10007B681B681846FFF72BFF00E000BFFB7BCA
:101D200018461037BD4680BD80B489B000AFF8605A
:101D3000B9607A60FB681A68BB687B617B6993FA5B
:101D4000A3F33B613B69B3FA83F3DBB25B0003218E
:101D500001FA03F3DB431A40BB68FB61FB6993FAAA
:101D6000A3F3BB61BB69B3FA83F3DBB25B007968B1
:101D700001FA03F31A43FB681A6000BF2437BD461B
:101D80005DF8047B704780B485B000AFF860B9603F
:101D90007A60FB685A68BB68DB431A40BB687968A5
:101DA00001FB03F31A43FB685A6000BF1437BD46BA
:101DB0005DF8047B704780B489B000AFF860B9600B
:101DC0007A60FB689A68BB687B617B6993FAA3F3CE
:101DD0003B613B69B3FA83F3DBB25B00032101FA99
:101DE00003F3DB431A40BB68FB61FB6993FAA3F37F
:101DF000BB61BB69B3FA83F3DBB25B00796801FABC
:101E000003F31A43FB689A6000BF2437BD465DF8B0
:101E1000047B704780B489B000AFF860B9607A6025
:101E2000FB68DA68BB687B617B6993FAA3F33B616B
:101E30003B69B3FA83F3DBB25B00032101FA03F3DE
:101E4000DB431A40BB68FB61FB6993FAA3F3BB61F8
:101E5000BB69B3FA83F3DBB25B00796801FA03F381
:101E60001A43FB68DA6000BF2437BD465DF8047B87
:101E7000704780B489B000AFF860B9607A60FB68E1
:101E80001A6ABB687B617B6993FAA3F33B613B6988
:101E9000B3FA83F3DBB29B000F2101FA03F3DB43B8
:101EA0001A40BB68FB61FB6993FAA3F3BB61BB6992
:101EB000B3FA83F3DBB29B00796801FA03F31A43A8
:101EC000FB681A6200BF2437BD465DF8047B70478B
:101ED00080B489B000AFF860B9607A60FB685A6A74
:101EE000BB681B0A7B617B6993FAA3F33B613B6987
:101EF000B3FA83F3DBB29B000F2101FA03F3DB4358
:101F00001A40BB681B0AFB61FB6993FAA3F3BB6130
:101F1000BB69B3FA83F3DBB29B00796801FA03F380
:101F20001A43FB685A6200BF2437BD465DF8047B44
:101F3000704780B588B000AF786039600023FB61DE
:101F40000023BB613B681B687B617B6993FAA3F349
:101F50003B613B69B3FA83F3DBB2FB6149E03B6869
:101F60001A680121FB6901FA03F31340BB61BB69E5
:101F7000002B3BD03B685B681A46B9697868FFF76D
:101F8000D3FE3B685B68012B03D03B685B68022B88
:101F900006D13B689B681A46B9697868FFF70BFF62
:101FA0003B681B691A46B9697868FFF733FF3B68DD
:101FB0005B68022B1AD1BB69FB60FB6893FAA3F341
:101FC000BB60BB68B3FA83F3DBB2072B07D83B686F
:101FD0005B691A46B9697868FFF74BFF06E03B6812
:101FE0005B691A46B9697868FFF772FFFB690133CC
:101FF000FB613B681A68FB6922FA03F3002BAED140
:102000003B685B68012B03D03B685B68022B07D100
:102010003B6819683B68DB681A467868FFF7B3FECF
:10202000002318462037BD4680BD80B483B000AF82
:10203000786039607B683A689A6200BF0C37BD46A9
:102040005DF8047B704780B483B000AF786039607E
:102050007B683A68DA6200BF0C37BD465DF8047BE6
:10206000704780B483B000AF786039607B683A68AD
:102070001A6300BF0C37BD465DF8047B704780B41F
:1020800083B000AF78607B685B6943F001027B68D6
:102090005A6100BF0C37BD465DF8047B70470000F5
:1020A00080B584B000AF786039607B681B68FB60E6
:1020B0007B683D4A934213D07B68B3F1804F0FD0C9
:1020C0007B683A4A93420BD07B68394A934207D0E7
:1020D0007B68384A934203D07B68374A934206D1E3
:1020E000FB6823F070023B685B681343FB607B680E
:1020F0002D4A93422BD07B68B3F1804F27D07B6869
:102100002A4A934223D07B68294A93421FD07B6896
:10211000284A93421BD07B68274A934217D07B689A
:10212000264A934213D07B68254A93420FD07B689E
:10213000244A93420BD07B68234A934207D07B68A2
:10214000224A934203D07B68214A934206D1FB681E
:1021500023F440723B68DB681343FB607B68FA68DA
:102160001A603B689B6819467868FFF76CFF3B680C
:102170001B8819467868FFF758FF7B680A4A934224
:1021800003D07B680C4A934205D13B681B7C1946FF
:102190007868FFF766FF7868FFF771FF002318463D
:1021A0001037BD4680BD00BF000001400004004064
:1021B00000080040000C00400004014000400140C5
:1021C000004401400048014000180040001C00404D
:1021D0000020004080B483B000AF786039607A6836
:1021E0003B68B2FBF3F3074A013B5360054B002207
:1021F0009A60044B05221A6000BF0C37BD465DF89B
:10220000047B704710E000E080B582B000AF7860DA
:102210004FF47A717868FFF7DDFF00BF0837BD46DD
:1022200080BD000080B483B000AF7860044A7B6852
:10223000136000BF0C37BD465DF8047B704700BFDC
:102240000C00002090B482B000AF786039600024A8
:102250003B68002B03D17B684C331C4600E0034CE9
:10226000234618460837BD4690BC704708230140F6
:1022700080B483B000AF78607B689B6843F0010254
:102280007B689A6000BF0C37BD465DF8047B7047E1
:1022900080B483B000AF786039600C4A3B68134467
:1022A0001B781A467B6813441B6808493A680A443D
:1022B000127811467A680A4443F00103136000BFA4
:1022C0000C37BD465DF8047B704700BF886E000880
:1022D00080B485B000AFF860B9607A600D4ABB6821
:1022E00013441B781A46FB6813445B681B0C1B04E1
:1022F0000849BA680A4412781146FA680A44114635
:102300007A6813434B6000BF1437BD465DF8047B09
:10231000704700BF886E000880B485B000AFF860D9
:10232000B9607A603B60BB69402B14D1174ABB6827
:1023300013441B781A46FB6813441A467B68D36023
:10234000124ABB6813441B781A46FB6813441A46AA
:102350003B68936013E00D4ABB6813441B781A4630
:10236000FB6813441A467B689360084ABB681344B1
:102370001B781A46FB6813441A463B68D36000BFBB
:102380001437BD465DF8047B704700BF886E0008B7
:1023900080B483B000AF786039600C4A3B68134466
:1023A0001B781A467B6813441B6808493A680A443C
:1023B000127811467A680A4443F01003136000BF94
:1023C0000C37BD465DF8047B704700BF886E00087F
:1023D00080B483B000AF78607B681B6843F0010273
:1023E0007B681A6000BF0C37BD465DF8047B704700
:1023F00080B483B000AF78607B681B6823F0020272
:102400007B681A6000BF0C37BD465DF8047B7047DF
:1024100080B400AF034B1B681846BD465DF8047BD3
:10242000704700BF0800002080B400AF034B1B784A
:102430001846BD465DF8047B704700BF00020020CF
:1024400080B400AF034B00221A7000BFBD465DF898
:10245000047B70470002002080B582B002AF0021EB
:102460001348FFF7EFFE0146124A0023009313467C
:102470000A4600211048FFF74FFF022200210E48B4
:10248000FFF726FF00210C48FFF702FF00210A4852
:10249000FFF77EFF0648FFF7EBFE4FF08040FFF7A7
:1024A000A7FF4FF08040FFF793FF00BFBD4680BD00
:1024B00000200140180200200064024080B483B074
:1024C00000AF294B1B6803F5FA437B60274B1B7851
:1024D000012B43D07B681B68B3F57A6F02D17B6810
:1024E00000221A60224B1B8807EE903AB8EE677AFA
:1024F000DFED206AC7EE267A1B4B1A687B681B68E3
:10250000B7EE007A77EEC77A9B001344C3ED007AEA
:10251000174B5B8807EE903AB8EE677ADFED156AE5
:10252000C7EE267A104B1A687B681B68B7EE007AF4
:1025300077EEC77A03F57A639B001344C3ED007A04
:102540007B681B685A1C7B681A607B681B68B3F544
:102550007A6F04D1054B01221A7000E000BF0C37DE
:10256000BD465DF8047B7047080000200002002093
:10257000180200200000004590B591B000AF7860CF
:1025800039604FF00003FB634FF00003BB634FF073
:1025900000037B634FF000033B630023FB625AE0C0
:1025A0003A68FB6A9B00134493ED007A7A68FB6AF1
:1025B00003F57A639B001344D3ED007A67EE277A24
:1025C00097ED0F7A77EE277AC7ED0F7A3A68FB6AB4
:1025D0009B00134493ED007A7A68FB6A9B001344D6
:1025E000D3ED007A67EE277A97ED0E7A77EE277AA9
:1025F000C7ED0E7A3A68FB6A03F57A639B001344D1
:1026000093ED007A7A68FB6A03F57A639B001344C2
:10261000D3ED007A67EE277A97ED0D7A77EE277A79
:10262000C7ED0D7A3A68FB6A03F57A639B001344A1
:1026300093ED007A7A68FB6A9B001344D3ED007A2D
:1026400067EE277A97ED0C7A77EE277AC7ED0C7A4A
:10265000FB6A0133FB62FB6AB3F57A6FA0DBD7ED4F
:102660000F0A97ED0E0A01F0F7FA87ED090AD7ED88
:102670000D0A97ED0C0A01F0EFFA87ED080A97EDC5
:10268000087AD7ED097A77EE677AC7ED0A7AB86AE1
:10269000FDF722FF36A3D3E90023FEF705FA034630
:1026A000002B0FD0B86AFDF717FF33A3D3E900233F
:1026B000FDF7B2FD03460C4618462146FEF7FEF92B
:1026C0000346BB62B86AFDF707FF2DA3D3E90023D9
:1026D000FEF7CCF90346002B0FD0B86AFDF7FCFEDD
:1026E00025A3D3E90023FDF799FD03460C461846C0
:1026F0002146FEF7E3F90346BB621B4BFB6197EDF6
:102700000A7AD7ED077A67EE277AC7ED067A174B74
:102710007B61D7ED066A97ED057AC6EE877AC7ED3D
:10272000047A3869FDF7D8FE0DA3D3E90023FEF73C
:1027300055F803460C4618462146FEF7BFF90346F6
:10274000FB6097ED030A01F02DFA87ED020ABB68E2
:1027500007EE903AB0EE670A4437BD4690BD00BF21
:10276000A60A462575028A3FCD3BAE3EDB0FC94027
:10277000182D4454FB210940182D4454FB211940C5
:10278000182D4454FB2109C080B400AF044BDB6812
:102790001B0A03F007031846BD465DF8047B70472B
:1027A00000ED00E080B483B000AF0346FB7197F901
:1027B0000730002B0BDBFB7903F01F02074997F969
:1027C00007305B09012000FA02F241F8232000BF24
:1027D0000C37BD465DF8047B704700BF00E100E0A8
:1027E00080B483B000AF03463960FB7197F90730BE
:1027F000002B0ADB3B68DAB20C4997F9073012016B
:10280000D2B20B4483F800230AE03B68DAB20849ED
:10281000FB7903F00F03043B1201D2B20B441A768A
:1028200000BF0C37BD465DF8047B704700E100E057
:1028300000ED00E080B489B000AFF860B9607A6064
:10284000FB6803F00703FB61FB69C3F10703042B7B
:1028500028BF0423BB61FB690433062B02D9FB6943
:10286000033B00E000237B614FF0FF32BB6902FABB
:1028700003F3DA43BB681A407B699A404FF0FF319B
:102880007B6901FA03F3D9437B680B401343184675
:102890002437BD465DF8047B704790B486B000AF26
:1028A000F860B9607A60FB682C331946BB6803F4A2
:1028B00040734FF440727A617A6992FAA2F23A61F7
:1028C0003A69B2FA82F2D2B2D3409B000B441C4662
:1028D0002268BB6803F01F031F2101FA03F3DB43E7
:1028E0001A407B6803F01F01BB6803F01F0301FA65
:1028F00003F31343236000BF1837BD4690BC7047F5
:1029000080B483B000AF786039607B689B6823F443
:1029100080623B681A437B689A6000BF0C37BD46F3
:102920005DF8047B704790B48AB000AFF860B9607E
:102930007A60FB680C331946BB6803F000734FF0F4
:1029400000727A617A6992FAA2F23A613A69B2FA4D
:1029500082F2D2B2D3409B000B441C462268BB6873
:1029600003F0F8734FF0F871F961F96991FAA1F188
:10297000B961B969B1FA81F1C9B2CB40072101FA55
:1029800003F3DB431A40BB6803F0F8734FF0F871B0
:102990007962796A91FAA1F13962396AB1FA81F101
:1029A000C9B2CB40796801FA03F31343236000BF37
:1029B0002837BD4690BC704780B483B000AF7860C4
:1029C00039607B689A683B681A437B689A6000BFED
:1029D0000C37BD465DF8047B704780B483B000AF10
:1029E00078607B685B6823F020027B685A6000BFD8
:1029F0000C37BD465DF8047B7047000080B485B09D
:102A000000AFF860B9607A600D4ABB6813441B7868
:102A10001A46FB6813441B6823F0C0020849BB68D0
:102A20000B441B781946FB680B4419467B6813431B
:102A30000B6000BF1437BD465DF8047B704700BFD4
:102A4000B86E000880B485B000AFF860B9607A60F5
:102A50000D4ABB6813441B781A46FB6813441B6875
:102A600023F490720849BB680B441B781946FB6835
:102A70000B4419467B6813430B6000BF1437BD46F7
:102A80005DF8047B704700BFB86E000880B485B065
:102A900000AFF860B9607A600D4ABB6813441B78D8
:102AA0001A46FB6813441B6823F400720849BB688C
:102AB0000B441B781946FB680B4419467B6813438B
:102AC0000B6000BF1437BD465DF8047B704700BF44
:102AD000B86E000880B485B000AFF860B9607A6065
:102AE0000D4ABB6813441B781A46FB6813441B68E5
:102AF00023F480620849BB680B441B781946FB68C5
:102B00000B4419467B6813430B6000BF1437BD4666
:102B10005DF8047B704700BFB86E000880B485B0D4
:102B200000AFF860B9607A600D4ABB6813441B7847
:102B30001A46FB6813441B6823F4C0520849BB685B
:102B40000B441B781946FB680B4419467B681343FA
:102B50000B6000BF1437BD465DF8047B704700BFB3
:102B6000B86E000880B485B000AFF860B9607A60D4
:102B70000D4ABB6813441B781A46FB6813441B6854
:102B800023F4C0420849BB680B441B781946FB6814
:102B90000B4419467B6813430B6000BF1437BD46D6
:102BA0005DF8047B704700BFB86E000880B485B044
:102BB00000AFF860B9607A600D4ABB6813441B78B7
:102BC0001A46FB6813441B6823F440320849BB686B
:102BD0000B441B781946FB680B4419467B6813436A
:102BE0000B6000BF1437BD465DF8047B704700BF23
:102BF000B86E000880B485B000AFF860B9607A6044
:102C00000D4ABB6813441B781A46FB6813441B68C3
:102C100023F060620849BB680B441B781946FB68C7
:102C20000B4419467B6813430B6000BF1437BD4645
:102C30005DF8047B704700BFB86E000880B483B0B5
:102C400000AF786039600C4A3B6813441B781A4621
:102C50007B6813445B6908493A680A441278114654
:102C60007A680A4423F00403536100BF0C37BD4661
:102C70005DF8047B704700BFB86E000880B400AFF9
:102C8000054B1B68044A43F48033136000BFBD4604
:102C90005DF8047B704700BF0038024080B400AF8D
:102CA000074B1B6803F40033B3F5003F0CBF01234F
:102CB0000023DBB21846BD465DF8047B704700BFB9
:102CC0000038024080B483B000AF7860064B9B6848
:102CD00023F0030204497B6813438B6000BF0C3769
:102CE000BD465DF8047B70470038024080B400AFF9
:102CF000044B9B6803F00C031846BD465DF8047B4B
:102D0000704700BF0038024080B483B000AF7860E5
:102D1000064B9B6823F0F00204497B6813438B60E9
:102D200000BF0C37BD465DF8047B70470038024099
:102D300080B483B000AF7860064B9B6823F4E05208
:102D400004497B6813438B6000BF0C37BD465DF8B8
:102D5000047B70470038024080B483B000AF7860D5
:102D6000064B9B6823F4604204497B6813438B60E5
:102D700000BF0C37BD465DF8047B70470038024049
:102D800080B483B000AF7860074BD3F88C3023F069
:102D9000807205497B681343C1F88C3000BF0C3743
:102DA000BD465DF8047B70470038024080B400AF38
:102DB000054B1B68044A43F08073136000BFBD4697
:102DC0005DF8047B704700BF0038024080B400AF5C
:102DD000074B1B6803F00073B3F1007F0CBF0123A6
:102DE0000023DBB21846BD465DF8047B704700BF88
:102DF0000038024080B485B000AFF860B9607A60F6
:102E00003B60114B5A68114B1340F968BA68114383
:102E10007A6892010A430C4913434B600A4B5B6882
:102E200023F4403208493B6813434B60064B5B6810
:102E300023F0E04204493B6813434B6000BF143762
:102E4000BD465DF8047B7047003802400080BFFF3C
:102E500080B485B000AF7860084B1A6B07497B6877
:102E600013430B63054B1A6B7B681340FB60FB68D5
:102E700000BF1437BD465DF8047B70470038024040
:102E800080B485B000AF7860084B1A6C07497B6846
:102E900013430B64054B1A6C7B681340FB60FB68A3
:102EA00000BF1437BD465DF8047B70470038024010
:102EB00080B485B000AF7860084B5A6C07497B68D6
:102EC00013434B64054B5A6C7B681340FB60FB68F3
:102ED00000BF1437BD465DF8047B704700380240E0
:102EE00080B485B000AF78603960134A3B68DBB2CC
:102EF000023352F823203B681B0CDB4302EA030138
:102F00003B681B0CFB60FB6893FAA3F3BB60BB68D8
:102F1000B3FA83F3DBB21A467B6803FA02F206487F
:102F20003B68DBB20A43023340F8232000BF14376A
:102F3000BD465DF8047B70470038014080B483B023
:102F400000AF7860064B1B6823F00F0204497B68D2
:102F500013430B6000BF0C37BD465DF8047B704720
:102F6000003C024080B400AF044B1B6803F00F0329
:102F70001846BD465DF8047B704700BF003C024028
:102F800080B483B000AF78607B68042B06D1094B16
:102F90001B68084A43F00403136005E0054B1B68F7
:102FA000044A23F00403136000BF0C37BD465DF8EC
:102FB000047B704710E000E080B400AF054B1B6855
:102FC000044A43F48033136000BFBD465DF8047BC0
:102FD000704700BF0070004080B483B000AF7860DD
:102FE000064B1B6823F4404204497B6813430B6083
:102FF00000BF0C37BD465DF8047B70470070004091
:1030000080B483B000AF78607B681B6823F08002D7
:103010007B681A6000BF0C37BD465DF8047B7047C3
:1030200080B483B000AF786039607B689B6823F41C
:10303000804323F007033A681A437B689A6000BF15
:103040000C37BD465DF8047B704780B483B000AF99
:10305000786039607B685B6823F070023B681A43D4
:103060007B685A6000BF0C37BD465DF8047B704733
:1030700080B483B000AF78607B689B6823F08002E7
:103080007B689A6000BF0C37BD465DF8047B7047D3
:1030900080B489B000AFF860B9607A60FB681A68E4
:1030A000BB687B617B6993FAA3F33B613B69B3FA2D
:1030B00083F3DBB25B00032101FA03F3DB431A4025
:1030C000BB68FB61FB6993FAA3F3BB61BB69B3FA0D
:1030D00083F3DBB25B00796801FA03F31A43FB6800
:1030E0001A6000BF2437BD465DF8047B704780B48A
:1030F00089B000AFF860B9607A60FB68DA68BB68D5
:103100007B617B6993FAA3F33B613B69B3FA83F379
:10311000DBB25B00032101FA03F3DB431A40BB6817
:10312000FB61FB6993FAA3F3BB61BB69B3FA83F359
:10313000DBB25B00796801FA03F31A43FB68DA60DB
:1031400000BF2437BD465DF8047B704780B483B070
:1031500000AF786039603B681A047B689A6100BFF1
:103160000C37BD465DF8047B70470000F0B5ADF547
:103170007A4D8BB002AFFDF789FD00F0A9F800F0A1
:1031800029FA00F00FFA00F0F1F800F0AFF900F0C2
:10319000DFF9FFF761F907F5FA4404F12004103C68
:1031A00007F12003203B184600F076FA07F12003D0
:1031B000203B204619464FF4FA431A4601F012FE0E
:1031C000FFF732F90346012BFAD1FFF721F907F592
:1031D0007A4303F11803186007F5FA4303F120035B
:1031E000103B07F57A4202F1180211681846FFF702
:1031F000C3F907F57A4303F1140383ED000A0023B2
:1032000007F57A4202F11C02136051E007F57A4398
:1032100003F118031A6807F57A4303F11C031B68CE
:103220009B0013441B681846FDF756F905460E46E9
:1032300007F57A4303F118031A6807F57A4303F197
:103240001C031B6803F57A639B0013441B68184634
:10325000FDF742F903460C4607F5FA4000F120005D
:103260002038CDE900342A463346174902F02AFABD
:10327000034607F57A4202F11002136007F57A431C
:1032800003F110031B689AB207F5FA4101F120011E
:10329000203964230D48FEF764F807F57A4303F1FB
:1032A0001C031B68013307F57A4202F11C0213600C
:1032B00007F57A4303F11C031B68B3F57A6FA5DBAE
:1032C000FFF7BEF87CE700BFE86E0008207F002013
:1032D00080B500AF0520FFF731FEFFF743FE034640
:1032E000052B01D000F0CEF94FF44040FFF774FEFB
:1032F000FFF762FEFFF7C2FC00BFFFF7CFFC0346FB
:10330000012BFAD100234FF4B47208214FF480004E
:10331000FFF770FDFFF74AFD00BFFFF757FD0346BB
:10332000012BFAD10020FFF7EFFC4FF4A050FFF77C
:10333000FFFC4FF40040FFF70FFD0220FFF7C2FC37
:1033400000BFFFF7D3FC0346082BFAD10648FEF76F
:103350005BFF0420FFF714FE0348FEF763FF002025
:10336000FFF70EFD00BF80BD0095BA0A80B592B090
:1033700000AF07F13C0300221A605A609A6007F11F
:10338000280300221A605A609A60DA601A6107F115
:10339000180300221A605A609A60DA603B460022E5
:1033A0001A605A609A60DA601A615A614FF480704C
:1033B000FFF77EFD0120FFF74BFD03233B60032356
:1033C0007B6000233B613B4619464348FEF7B1FD55
:1033D000002200214148FFF70DFC002200213F4858
:1033E000FFF70CFB002200213C48FFF7DFFB4FF406
:1033F000807200213948FFF725FB00220021374861
:10340000FFF744FB4FF4806200213448FFF762FB72
:103410004FF4006200213148FFF780FB4FF4005267
:1034200000212E48FFF79EFB00212C48FFF706FCE9
:103430000023FB6300233B644FF480737B6407F13C
:103440003C0319462648FEF7E7FA4FF0B053BB623B
:103450004FF48013FB6200233B6302237B634FF432
:103460004073BB6307F1280319461D48FEF700FBB4
:1034700000211B48FFF744FA1948FFF7AEFA4FF452
:103480008033BB610023FB6107F11803194615481F
:10349000FEF77AFA4FF080511148FFF78DFA4FF09E
:1034A00000724FF400710E48FFF7F7F900224FF059
:1034B00000710B48FFF737FA0B4A40F20521084824
:1034C000FFF7EBF9002208490548FFF72CFA00BF87
:1034D0004837BD4680BD00BF000002400064024086
:1034E00000200140002301400100300280B586B079
:1034F00000AF3B1D00221A605A609A60DA601A61C0
:103500000120FFF7BDFC5923BB800023BB603123A2
:10351000FB6000233B613B1D19464FF08040FEF7E6
:10352000BFFD4FF08040FFF76BFD00214FF0804062
:10353000FFF776FD20214FF08040FFF786FD4FF02A
:103540008040FFF795FD00BF1837BD4680BD0000E5
:1035500080B500AF114B124A1A60104B4FF4E132A4
:103560005A600E4B00229A600C4B0022DA600B4B23
:1035700000221A61094B0C225A61084B00229A6101
:10358000064B0022DA610548FDF79EFE0346002B3C
:1035900001D000F077F800BF80BD00BF207F002081
:1035A0000044004080B500AF4FF48000FFF750FCAE
:1035B000FFF7EAF80346002200211846FFF73AF920
:1035C000034619463820FFF70BF93820FFF7EAF8D1
:1035D00000BF80BD80B588B000AF07F1180300229E
:1035E0001A605A603B4600221A605A609A60DA609C
:1035F0001A615A610420FFF72BFC8020FFF728FC9A
:103600000120FFF725FC0220FFF722FC20211A48A9
:10361000FFF79CFD19490220FFF762FC4FF40053AD
:10362000BB6101233B7700237B770223BB7707F144
:1036300018031846FEF7FCFA00224FF40051104818
:10364000FFF755FD00224FF400510D48FFF720FD14
:1036500020233B6001237B600023BB600023FB60D1
:1036600000233B613B4619460348FEF762FC00BF5E
:103670002037BD4680BD00BF000002400300F000BF
:103680000008024080B400AF00BFBD465DF8047B77
:10369000704700000000000090B5ADF5FA4D85B010
:1036A00000AF07F110030C3B1860002307F5FA4246
:1036B00002F10C0213605EE007F5FA4303F10C031C
:1036C0001B684FF4FA6202FB03F31846FCF7F2FEA4
:1036D00039A3D3E90023FCF757FF03460C461846ED
:1036E000214637A3D3E90023FDF778F803460C46BB
:1036F00018462146FDF7E2F9034607F5FA4202F1C2
:103700000802136007F5FA4303F1080393ED000A7A
:1037100000F0B6F9F0EE407A07F11003083B07F528
:10372000FA4202F10C02126802F57A629200134426
:10373000C3ED007A07F5FA4303F1080393ED000A9D
:1037400000F0E6F9F0EE407A07F11003083B07F5C8
:10375000FA4202F10C02126892001344C3ED007A9F
:1037600007F5FA4303F10C031B68013307F5FA422E
:1037700002F10C02136007F5FA4303F10C031B6816
:10378000B3F57A6F98DB07F110030C3B1A6807F169
:103790001003083B104619464FF4FA431A4601F04D
:1037A00021FB07F110030C3B186807F5FA471437A3
:1037B000BD4690BDAFF30080182D4454FB21094055
:1037C000000000000088D34080B582B000AF002325
:1037D0007B60104B5B6C0F4A43F4804353640D4B8A
:1037E0005B6C03F480437B607B6800233B60094B88
:1037F0001B6C084A43F080531364064B1B6C03F0A8
:1038000080533B603B680720FDF764FB00BF08372F
:10381000BD4680BD0038024080B58AB000AF7860F8
:1038200007F1140300221A605A609A60DA601A6184
:103830007B681B68194A93422BD100233B61184BCC
:103840001B6C174A43F400331364154B1B6C03F4D1
:1038500000333B613B690023FB60114B1B6B104A3B
:1038600043F0010313630E4B1B6B03F00103FB607A
:10387000FB680C237B610223BB610123FB610323F3
:103880003B6207237B6207F1140319460548FDF7E5
:1038900055FB00BF2837BD4680BD00BF0044004037
:1038A000003802400000024080B483B000AF78606E
:1038B0007B681B6803F02003202B0CBF012300232F
:1038C000DBB218460C37BD465DF8047B704780B408
:1038D00083B000AF78607B6820229A6000BF0C370D
:1038E000BD465DF8047B704780B400AF00BFBD46A5
:1038F0005DF8047B704780B400AFFEE780B400AF92
:10390000FEE780B400AFFEE780B400AFFEE780B40E
:1039100000AF00BFBD465DF8047B704780B400AFC8
:1039200000BFBD465DF8047B704780B400AF00BFA8
:10393000BD465DF8047B704780B500AFFDF7F8F930
:1039400000BF80BD80B500AF0648FFF7ADFF03465E
:10395000002B04D00348FFF7BAFFFEF7AFFD00BF0E
:1039600080BD00BF0064024080B584B000AF7860C5
:10397000114B1B68002B02D10F4B104A1A600E4BE3
:103980001B68FB600C4B1A687B6813446A469342C1
:1039900007D901F0FDF902460C2313604FF0FF3305
:1039A00006E0054B1A687B681344034A1360FB6802
:1039B00018461037BD4680BD08020020687F0020F1
:1039C00080B400AF164BD3F88830154A43F4700327
:1039D000C2F88830134B1B68124A43F0010313608E
:1039E000104B00229A600F4B1B680E4A23F0847321
:1039F00023F4803313600B4B0B4A5A60094B1B684E
:103A0000084A23F480231360064B0022DA60044B3B
:103A10004FF000629A6000BFBD465DF8047B7047BE
:103A200000ED00E00038024010300024DFF834D010
:103A3000002103E00C4B5B58435004310B480C4B06
:103A400042189A42F6D30B4A02E0002342F8043BA4
:103A5000094B9A42F9D3FFF7B3FF01F09FF9FFF743
:103A600085FB7047000002206875000800000020F8
:103A7000E4010020E4010020647F0020FEE7000054
:103A800000B510EE103A204A23F00043934283B071
:103A900019DDB3F1FF4F04DB30EE400A03B05DF8EF
:103AA00004FB684600F092FA00F00300012811D0F0
:103AB00002281FD0B8B10120DDED010A9DED000AFA
:103AC00000F07EFFEAE7DFED110A00F0CFFB03B064
:103AD0005DF804FBDDED010A9DED000A00F070FFCA
:103AE000B1EE400ADAE7DDED010A9DED000A00F0D3
:103AF000BDFBD3E7DDED010A9DED000A00F0B6FB4A
:103B0000B1EE400ACAE700BFD80F493F00000000ED
:103B100000B510EE103A214A23F00043934283B0DF
:103B20001ADDB3F1FF4F04DB30EE400A03B05DF85D
:103B300004FB684600F04AFA00F00300012813D0A5
:103B4000022820D0B8B1DDED010A9DED000A00F099
:103B50008DFBB1EE400AE9E70020DFED110A00F02D
:103B60002FFF03B05DF804FBDDED010A9DED000AB7
:103B700000F07CFBDAE70120DDED010A9DED000A93
:103B800000F01EFFD2E70120DDED010A9DED000AE5
:103B900000F016FFB1EE400AC8E700BFD80F493F5A
:103BA0000000000010B52DED028B284C8AB0B0EE5D
:103BB000408A00F053F894F900300133F0EE408A67
:103BC00034D0B4EE488AF1EE10FA2FD6B0EE480A9F
:103BD00001F01CF8F7EE007AB4EEE70AF1EE10FA05
:103BE00024DD01231A4A009318EE100A00230192E3
:103BF0000893FCF771FC02460B461648CDE90423F6
:103C0000CDE9022300F028FF94F90030022B8DED5E
:103C1000060B11D0684600F01BFF68B1089B83B902
:103C2000DDE90601FCF74AFF08EE900AB0EE680AEB
:103C30000AB0BDEC028B10BD01F0AAF8212303608D
:103C4000ECE701F0A5F8089B0360E9E7100000200D
:103C5000086F0008106F000800F0FAB838B510EED1
:103C6000105A25F00044B4F17E5F2DED048B68D02E
:103C700060DCB4F17C5F0DDAB4F1485F6EDADFED41
:103C8000647A70EE277AB7EE007AF4EEC77AF1EE36
:103C900010FA53DC00F0BAFFB7EE007A37EE400AB4
:103CA000B6EE008A20EE088ADFED5A2ADFED5A3A96
:103CB0009FED5A3ADFED5A4A9FED5A4ADFED5A5AC4
:103CC0009FED5A5A9FED5A6ADFED5A6ADFED5A7A34
:103CD000E8EE223AA8EE034AE3EE884AA4EE085A38
:103CE000E4EE885AE5EE086AA5EE886AA6EE887AC0
:103CF000E6EE087AB0EE480AB0EE479A67EE888A98
:103D000000F0B0FA4D4B9C425BDDC8EE896A9FED36
:103D10004C7ADFED4C7AA0EE260AF0EE006AA0EEB7
:103D2000267A37EEC70ABDEC048B002DD8BFB1EE62
:103D3000400A38BD70EE407A87EEA70ABDEC048BCE
:103D400038BDDFED417A9FED3F7A60EE277ABDEC1A
:103D5000048BE0EE077AB0EE670A38BD60EE007AB9
:103D6000DFED2C2ADFED2C3ADFED2D4A9FED2B3ACB
:103D70009FED2C4ADFED2C6A9FED2C5ADFED2C5A7B
:103D80009FED2C6A9FED2C7AE7EEA23ABDEC048BF6
:103D9000E3EEA74AA7EE834AE4EEA76AA4EE275A09
:103DA000E6EEA75AA5EE276AA5EEA77AF7EE006A17
:103DB000E6EE276A67EE277A87EEA67AA0EE070A74
:103DC00038BD10EE103A23F47F6323F00F0307EEA3
:103DD000903AB1EE676AA6EE278A77EE807AC8EE4F
:103DE000895A88EE275A9FED187ADFED187AF0EE9F
:103DF000006AA5EE667A30EE000AB0EE675AA6EECB
:103E0000265A90EE257A37EE450A37EEC00A8AE741
:103E1000CAF2497108EF1138047F4F3A2EC69D3D12
:103E2000461124BD613330BFA80A4E3E2D570140D4
:103E300090B0A6BE39D119C0ABAA2A3E9999793F54
:103E40002EBD3B33DB0FC93F2EBD3BB3DB0F493FDC
:103E500010B582B0CDED010A019B23F00042B2F112
:103E6000FF4FF0EE407A18DC10EE100A20F000410F
:103E7000B1F1FF4F11DCB3F17E5F3DD09C1704F030
:103E8000020444EAD07471B9022C4AD09FED440A6E
:103E9000032C18BFB0EE670A03E09DED017A37EE00
:103EA000270A02B010BD42B99FED3E0ADFED3E7A0F
:103EB0000028B8BFB0EE670AF3E7B2F1FF4F20D099
:103EC000B1F1FF4F30D08A1AD2153C2A35DC002BD5
:103ED00036DA3C3234DA9FED350A012C42D0022C1E
:103EE00037D0002CDDD0DFED327A9FED327A70EEE4
:103EF000277A37EEC70AD4E702B0BDE8104000F0D9
:103F0000B3BDB1F1FF4F34D0022C0AD0032C3DD009
:103F1000DFED297A9FED250A012C08BFB0EE670A74
:103F2000BFE79FED240ABCE7DFED1E7A9FED1E0A76
:103F30000028A8BFB0EE670AB3E79FED1A0ACCE7E6
:103F40009DED010A87EE800A00F060FE00F08CFD16
:103F5000C3E7DFED177A9FED177A70EE277A37EE19
:103F6000670A9EE710EE103A03F1004300EE103AA4
:103F700097E7022C10D0032C0BD0DFED107A9FEDC9
:103F8000100A012C08BFB0EE670A8AE79FED040A09
:103F900087E79FED0C0A84E79FED0B0A81E700BFDE
:103FA000DB0F49C0DB0FC93FDB0FC9BF00000000BA
:103FB0002EBDBB33DB0F494000000080DB0F49BF43
:103FC000DB0F493FE4CB16C0E4CB164070B510EED2
:103FD000103A964A23F00044944286B0054669DDC3
:103FE000934A944210EE106A1ADC002B24F00F045E
:103FF000DFED907A904A64DD944270EE677A00F0CB
:10400000CF809FED8E7A77EEC76A012077EEE67A51
:10401000C5ED006A77EEC77AC5ED017A06B070BDCE
:10402000874A944261DDB4F1FF4F80F2B180E2151E
:10403000863AA4EBC25307EE903ABDEEE77ADFED85
:10404000816AB8EEC77A77EEC77A8DED037A67EEAC
:10405000A67ABDEEE77AB8EEC77A77EEC77A8DED2D
:10406000047A67EEA67AF5EE407AF1EE10FACDED1D
:10407000057A40F0C780B5EE407AF1EE10FA0CBF39
:1040800001230223704901910221009103A82946CE
:1040900000F06EF9002E12DA95ED007AD5ED017A76
:1040A000B1EE477AF1EE677A404285ED007AC5EDD0
:1040B000017A04E0002285ED000A4260002006B08B
:1040C00070BD944270EE277A00F089809FED5B7A94
:1040D00077EE876A4FF0FF3077EEE67AC5ED006A3B
:1040E00077EE877AC5ED017AE9E700F08FFDDFED25
:1040F000576ADFED505A9FED517AF6EE007AE0EE06
:10410000267AFDEEE77A17EE900AF8EEE76A1F28A6
:10411000B1EE666AA6EE250A66EE877A52DD30EECB
:10412000677A17EE103AE415C3F3C753E31A082B66
:1041300052DDDFED477A9FED477AF0EE405AE6EE2A
:10414000275A30EE650AA6EE270AF0EE407AD6EE40
:10415000877A35EEE77A17EE103AC3F3C753E41ABD
:10416000192C51DC85ED007AB0EE650A30EE470A75
:10417000002E30EE670A85ED010AA0DAB1EE477A2B
:10418000B1EE400A85ED007A85ED010A404296E7DE
:1041900070EE407A0020C5ED017AC5ED007A8EE719
:1041A000DFED2B6A9FED2B7A77EEE67A012077EE32
:1041B000C76A77EEE67AC5ED006A77EEC77AC5ED95
:1041C000017A7CE7421E244B53F8223024F0FF0290
:1041D0009A4230EE677AA4D085ED007AC6E7DFED2B
:1041E0001C6A9FED1C7A77EEA67A4FF0FF3077EECF
:1041F000876A77EEE67AC5ED006A77EE877AC5EDD5
:10420000017A5CE703233DE79FED147A9FED145A92
:10421000B0EE650AA6EE070A75EEC07AE6EE077AFA
:10422000D6EE857A30EE677AD6E700BFD80F493FE1
:10423000E3CB1640800FC93FD00FC93F4344353709
:10424000800F494300008043946F000884F9223FA7
:104250000044353708A3852E146F000800A3852E6F
:1042600032318D24B1EEC00A704700BF10EE103A13
:1042700023F00043B3F1485F2CDAFDEEC07A17EE6D
:10428000903A002B5BD020EE007ADFED314A9FEDB3
:10429000315ADFED315A9FED316ADFED317ADFEDD2
:1042A000316AA7EE245AE7EE055AA7EE256AE7EE33
:1042B000067AE7EE276A66EE876A60EEC00AB6EE17
:1042C000006AE7EE260AF7EE007AD7EE060A37EE26
:1042D000E00A704720EE007ADFED1D4A9FED1D5A7F
:1042E000DFED1D5A9FED1D6ADFED1D7ADFED1D6AC2
:1042F0001D4AA7EE245A9342E5EE075AA5EE876AB7
:10430000E6EE077AE7EE876A66EE876AD5DD174A3A
:10431000934217DC03F17F4307EE903AB7EE006A51
:1043200036EE676A60EEC00AF6EE005AE7EE260A3D
:10433000D7EE257A77EEE07A36EE670A7047B7EE69
:10434000000A7047B6EE076AF5EE027AEAE700BFA8
:104350004ED747ADF6740F317CF293B4010DD037D0
:10436000610BB6BAABAA2A3D9999993E0000483F25
:104370002DE9F04F2DED048BD7B003F1FF390293F7
:10438000D31E48BF131DB24C649D0591DB1023EA78
:10439000E37354F82560039303F10108A2EBC80806
:1043A00016EB09028646A3EB090316D41A449FEDC7
:1043B000A97A6598511C1AAA002BA4BF50F8234073
:1043C00007EE904A03F10103ACBFF8EEE77AF0EE96
:1043D000477A8B42E2EC017AEED1029B002E4FEA43
:1043E00083044FEA860A1DDB1AAB181943AA7346E9
:1043F000191902EB0A0742ADF446B9F1000FDFEDDF
:10440000957A09DB02466346F3EC016A32ED017AE4
:104410008B42E6EE877AF7D1E5EC017ABD4200F1F6
:104420000400EAD1AAF1080306ADEB1804939FED4E
:104430008B9ADFED898A009605ABB34674449A44A3
:1044400042AF76464FEA8B0156AB0B44BBF1000FEF
:1044500013ED140A16DD07EB8B032A4660EE097A8A
:10446000B0EE407AFDEEE77A73ED016AF8EEE77A96
:10447000BB42A7EEE87A37EEA60ABDEEC77AA2ECF9
:10448000017AEBD14046019100F00EFCB0EE408A7B
:10449000B4EE000A28EE000A00F0C0FBF2EE007A4B
:1044A000A0EE678AB8F1000F0199FDEEC89AF8EE08
:1044B000E97A38EE678A40F3C4800BF1FF3CC8F11B
:1044C000080355F82C2042FA03F000FA03F3D31A3C
:1044D00045F82C3019EE90CA8444C8F1070209EE61
:1044E00090CA43FA02F2002A31DD19EE903ABBF18C
:1044F000000F03F1010309EE903A40F32982286886
:10450000002840F08680BBF1010F0BD0AE464FF083
:10451000010C5EF8040F0CF1010300287CD19B45CF
:104520009C46F6D1B8F1000F0EDDB8F1010F00F096
:104530003281B8F1020F07D10BF1FF3155F821306C
:1045400003F03F0345F82130022A00F01281B5EE56
:10455000408AF1EE10FA40F09580009B0BF1FF3C91
:1045600063450EDC0BF18041013905EB8101002030
:1045700051F80439514540EA0300F9D1002840F0D0
:104580001381009B013B55F82330002B40F0008144
:10459000049B4FF0010C53F804290CF1010C002A84
:1045A000F9D0DC440BF1010EE64530DC039B029AA6
:1045B0000EEB03015A4403EB0C0B1AAB01F18041E3
:1045C00003EB8202659B013903EB810107EB8E0E41
:1045D00003EB8B0B51F8043F9FED1E7A07EE903AE8
:1045E000F8EEE77A1046B9F1000FE0EC017A09DB4A
:1045F000334601E072ED017AF3EC016AA342A6EEC4
:10460000A77AF7D15945AEEC017A0246E2D1E346EA
:1046100018E701234FF0000CC0F580709B4545F86A
:104620002C000CDD55F82300294405EB830300E042
:104630001868C0F1FF0043F8040B8B42F8D1012049
:1046400070E70FD10BF1FF3355F8232012124AE720
:10465000D872000800000000000080430000803B8A
:104660000000C93FF6EE007AB4EEE78AF1EE10FAE8
:1046700080F25881B5EE408AF1EE10FA4FF0000258
:104680003FF46BAFB0EE480AC8F100009146009EBF
:1046900000F00AFB1FED107AB4EEC70AF1EE10FA33
:1046A000C0F258815FED137A60EE277A0BF10103B7
:1046B000FDEEE77A08F10808F8EEE77AA7EEC70AF8
:1046C000FDEEE77ABDEEC00A10EE102A45F82B2069
:1046D00017EE902A45F823204046B7EE000A0093D3
:1046E00000F0E2FA009B002BC0F24B81980042AA36
:1046F00000F1040C1FED277A1044011D05EB0C029C
:1047000072ED017AF8EEE77AAA4267EE807A20EE3F
:10471000070A61ED017AF3D10DF1B80E1FED306A91
:104720000546774603F101080024002EC0F20581FA
:10473000A148DFEDA27A2946B0EE467A002203E0D6
:10474000A24208DCB0EC017AF1EC016A0132964237
:10475000E6EE877AF4DA01344445E7EC017AA5F114
:104760000405E2D1649A032A53D8DFE802F0CAB6FE
:10477000B65BB7EE000A30EE488A00283FF4E7AE99
:104780004046019200F090FA019A38EE408ADEE647
:104790004FF0010C05E70BF1FF3155F8213003F024
:1047A0007F0345F82130CFE6914655F82C20009E36
:1047B0006346A8F10808002A8ED10CF18042013A24
:1047C00005EB820252F80419013BA8F10808002900
:1047D000F8D081E74A46DFED797A002A40F0C280BE
:1047E0009DED2E7A059A002BC2ED007A77EE677A5E
:1047F0000CDD2FA90122B1EC017A0132934277EE50
:10480000877AF8DA4B46002B40F0B880059BC3ED61
:10481000017A19EE903A03F0070057B0BDEC048B13
:10482000BDE8F08F002B40F3C480980056AA0244E4
:104830000DF1B80E03F1804152ED286A01390EEBFB
:10484000830272ED017A37EEA67A964577EEC77A43
:1048500082ED007A77EEA67AF0EE476AC2ED017A31
:10486000EFD1012B40F3A58056AB184489000B1DF6
:1048700050ED286A73442FAA73ED017A37EEA67AB9
:104880009A4277EEC77A83ED007A77EEA67AF0EE59
:10489000476AC3ED017AEFD10831DFED487A0EEBBC
:1048A00001030EF1080E33ED017A9E4577EE877A0B
:1048B000F9D14B46DDED2E6A9DED2F7A2BB1F1EE4D
:1048C000666AB1EE477AF1EE677A059BC3ED006A3E
:1048D00083ED017AC3ED027A9BE7002BFFF67AAFF6
:1048E0002EA901EB8302DFED357A043232ED017A35
:1048F000914277EE877AF9D14A46002A3FF470AFA9
:1049000030E0DFED2E7AF4443CED017AE64577EEB7
:10491000877AF9D14B460BB1F1EE677A059BC3ED6F
:10492000007A76E719EE903ABBF1000F03F101032C
:1049300009EE903A37DD0222E1E5DFED207A01341D
:104940004445E7EC017AA5F104057FF4EEAE09E7F2
:104950000020E7E5BDEEC00A5B4610EE102A45F8E0
:104960002B20B9E6DDED2E6A059AB1EE677A002BB1
:1049700076EEE77A82ED007A3FF73BAFF1EE677AA9
:1049800044E7649A032A3FF644AF01A151F822F0AC
:10499000A1490008DB480008DB480008254800085A
:1049A000DFED067AB6E7F7EE007A37EEC88A022224
:1049B000CDE5DFED027A7CE7B07200080000000070
:1049C00010EE103A23F00043B3F1485F04DAFDEE35
:1049D000C07A17EE903A23B360EE007A9FED155A35
:1049E000DFED155A9FED156ADFED156A9FED157A1B
:1049F000E7EE855A20EE275AA5EEA76AE6EE276A6B
:104A0000A6EEA77A70B127EE457AF6EE006AA0EE20
:104A1000A67ADFED0D6AD7EE270AE5EE260A30EE1C
:104A2000600A7047DFED096AE7EE876AA6EE850A3D
:104A3000704700BFD3C92E2F342FD7B21BEF3836A3
:104A4000010D50B98988083CABAA2A3EABAA2ABE00
:104A500000207047000000009FED010B704700BF71
:104A6000000000000000F87F38B510EE105A25F065
:104A70000044B4F1A14FF0EE407A0BDBB4F1FF4FEC
:104A800058DCDFED4F7A9FED4F0A002DD8BFB0EE16
:104A9000670A38BD4C4B9C425BDCB4F1445F4CDB95
:104AA0004FF0FF3367EEA76ADFED481ADFED482AC3
:104AB0009FED482A9FED483ADFED483A9FED484A7E
:104AC000DFED484A9FED485ADFED485A9FED480A0E
:104AD0009FED486A26EEA67A5A1CE7EE212AA7EE39
:104AE000023AE2EE873AA3EE074AE3EE874AA4EEE3
:104AF000075AE4EE875AA5EE070AA5EE876A20EE6C
:104B0000070AA6EE260A20EE270A37D03A493B4A82
:104B10009B00194491ED007A30EE470A134430EEC1
:104B2000670AD3ED007A002D37EEC00AB1DAB1EE94
:104B3000400A38BD30EE000A38BD9FED317A30EEC4
:104B4000077AF7EE006AB4EEE67AF1EE10FAA7DD26
:104B500038BD00F05BF82B4B9C4212DCA3F5D00370
:104B60009C4223DCF0EE007ABFEE007AA0EE277ABA
:104B7000002330EE270AC7EE007A93E737EEC00A2B
:104B800038BD214B9C420BDCF7EE087AB7EE007A79
:104B9000A0EE277A022330EE670AC0EE077A81E79B
:104BA000BFEE007AC7EE007A03237BE7F7EE007AC8
:104BB00030EE677A30EE270A0123C7EE007A71E7FC
:104BC000DB0FC9BFDB0FC93FFFFFDF3ED769853C65
:104BD00059DA4B3D21A215BD6BF16EBD356B883D99
:104BE00095879DBD6E2EBA3D388EE3BD2549123E98
:104BF000CDCC4CBEABAAAA3EF4720008E472000809
:104C0000CAF24971FFFF973FFFFF1B4010EE103AB9
:104C100023F0004300EE103A704700BF10EE102A58
:104C200022F00041CB0D7F3B162B1CDC002B10EE3D
:104C3000100A1EDB194919410A4227D0DFED187A04
:104C400070EE277AF5EEC07AF1EE10FA1EDD002A3A
:104C500004DA4FF4000242FA03F3184420EA010395
:104C600000EE103A7047B1F1FF4F0FD330EE000A5B
:104C70007047DFED0B7A70EE277AF5EEC07AF1EE31
:104C800010FA03DD002A02DB9FED060A70470029B7
:104C9000FFEE007A18BFB0EE670A7047FFFF7F0093
:104CA000CAF249710000000008B510EE103A33F066
:104CB00000422DED028B11D0B2F1FF4F11D2B2F5AF
:104CC000000F13D3D20D0244FE2A1CDC002A2ADD79
:104CD00023F0FF4343EAC25300EE103ABDEC028BCF
:104CE00008BDBDEC028B30EE000A08BD1D4BDFEDA8
:104CF0001E7A984220EE270A10DB10EE103AC3F31A
:104D0000C752193ADFE79FED198AF0EE400AB0EE7C
:104D1000480A00F031F820EE080ADFE7DFED140A58
:104D200020EE200ADAE712F1160F0EDA4CF25033B9
:104D30009842E8DC9FED0E8AF0EE400AB0EE480A99
:104D400000F01AF820EE080AC8E7193223F0FF43F2
:104D500043EAC253DFED077A00EE103A20EE270A4D
:104D6000BCE700BFB03CFFFF0000004CCAF2497135
:104D70006042A20D0000003310EE103A10EE902AAF
:104D800023F0004302F00042134300EE103A704754
:104D9000014B1868704700BF1400002070B50D4E1D
:104DA0000D4CA41BA4100025A54209D10B4E0C4CA0
:104DB00002F05EF8A41BA4100025A54205D170BD29
:104DC00056F8253098470135EEE756F825309847D4
:104DD0000135F2E76075000860750008607500082D
:104DE0006475000810B5431E0A44914200D110BDFD
:104DF00011F8014B03F8014FF7E7024403469342D1
:104E000000D1704703F8011BF9E72DE9FF4755EC86
:104E1000104B0D9FDDF830A0002D0E46914619462F
:104E2000B8BF22462B4627F02007BBBF05F1004341
:104E30001D4600232D23B8BF1446462F0B7004D007
:104E4000452F00D10136022100E0032103AB01937D
:104E500002AB00933246534645EC104B00F0E0FCA9
:104E6000472F804602D119F0010F26D0462F08EBBC
:104E7000060911D198F80030302B0AD10022002306
:104E800020462946FBF7E8FD18B9C6F10106CAF825
:104E90000060DAF8003099440022002320462946B9
:104EA000FBF7DAFD38B93022039B4B4505D2591C7C
:104EB00003911A70F8E7CDF80C90039B0E9AA3EBC0
:104EC00008034046136004B0BDE8F087F7B5002939
:104ED0000446BABF49422D232B23092904F8022B8B
:104EE000437020DD0DF107031F460A2691FBF6F5FE
:104EF00006FB15113031092D03F8011C03F1FF32B7
:104F0000294609DC3031023B02F8011CBB42224633
:104F100004D3101A03B0F0BD1346E7E713F8012BD2
:104F200004F8012BF2E7302319448370021DC1708D
:104F3000EFE700002DE9F04F8DB00C46DDF858800A
:104F400016461F46054601F023FA036804931846E7
:104F5000FBF704FE00230A93D8F8003005900733CE
:104F600023F0070303F1080294F818A0D4F800B066
:104F7000C8F80020D3E90023C4E91223D4E9128938
:104F800029F000430793CDF818804FF0FF32A74B6C
:104F9000DDE90601FBF73CFE70BB4FF0FF32A34B8F
:104FA000DDE90601FBF76CFD30BB00220023404623
:104FB0004946FBF75BFD10B12D2384F843309C4A32
:104FC0009C4BBAF1470F8CBF9046984603232BF0B9
:104FD0000402236122604FF00009009733460BAAB8
:104FE0002146284600F0E6F9013040F08D804FF070
:104FF000FF300DB0BDE8F08F42464B464046494673
:10500000FBF706FE10B18C4A8C4BDAE761684B1C4B
:105010004BF480620AA83ED1062363600023CDE9E9
:10502000020309AB009349EC108B0DF123032260BE
:10503000CDF804A061682846FFF7E7FE0AF0DF0319
:10504000472B804609D1099BD81C02DB626893423A
:1050500047DDAAF1020A5FFA8AFABAF1650F0999E7
:1050600024D80139524604F150000991FFF72EFF70
:105070000A9A1318012A8146236102DC2268D107AB
:1050800001D5013323619DF82330002BA5D02D23BA
:1050900084F84330A1E7BAF1670F00F07781BAF1E5
:1050A000470FBBD10029B9D10123B6E7BAF1660F8A
:1050B00019D1002963680CDD216113B92268D20778
:1050C00002D501330B442361099BA3654FF000090E
:1050D000D9E713B92268D00701D50233F3E70123DA
:1050E000F1E74FF0670ADDE90932934205DB2268F8
:1050F0002361D107E8D50133E5E7002BD4BFC3F125
:10510000020301231344DEE723685A0507D4236909
:10511000424631462846B84701302BD167E7BAF1FD
:10512000650F40F2DC8000220023D4E91201FBF776
:1051300093FC002833D00123414A31462846B84722
:1051400001303FF454AFDDE909239A4202DB2368C2
:10515000D8070FD5DDE9042331462846B84701308A
:105160003FF445AF4FF0000804F11A090A9B013BD8
:10517000434509DC23689B0700F10381E0680B9B32
:105180009842B8BF184634E701234A4631462846BC
:10519000B84701303FF42BAF08F10108E6E7099B5F
:1051A000002B2BDC0123264A31462846B847013024
:1051B0003FF41DAF099B23B90A9B13B92368D90794
:1051C000D8D5DDE9042331462846B84701303FF4FD
:1051D0000EAF4FF0000904F11A0A099B5B424B45E0
:1051E00001DC0A9B94E70123524631462846B84722
:1051F00001303FF4FCAE09F10109EEE70A9AA36D14
:105200009A42A8BF1A46002A914607DD1346314646
:1052100042462846B84701303FF4E9AE04F11A038C
:105220004FF0000B29EAE979069315E0FFFFEF7FC5
:105230000873000804730008107300080C7300085A
:10524000147300080123069A31462846B8470130F6
:105250003FF4CDAE0BF1010BD4F858A0AAEB090333
:105260005B45EFDCDDE909239A42D04415DB236876
:10527000DA0712D40A9B0999A3EB0A02A3EB010AED
:105280009245A8BF9246BAF1000F0EDC4FF000081D
:105290002AEAEA7A04F11A0919E0DDE90423314621
:1052A0002846B8470130E5D1A1E65346424631468B
:1052B0002846B8470130E9D199E601234A463146EC
:1052C0002846B84701303FF492AE08F10108DDE905
:1052D00009239B1AA3EB0A034345EEDC4AE70A9A2B
:1052E000012A01DCDB073AD5012342463146284634
:1052F000B84701303FF47BAEDDE904233146284650
:10530000B847013008F101083FF471AE0A9B002252
:1053100003F1FF3AD4E912010023FBF79DFBC8B962
:105320005346424631462846B84701300ED15EE624
:105330000123524631462846B84701303FF457AE64
:1053400008F101080A9B013B4345F1DC4B4604F19F
:105350005002DEE64FF0000804F11A0AF2E70123DA
:10536000DFE701234A4631462846B84701303FF47B
:105370003EAE08F10108E3680B9A9B1A4345F0DC46
:10538000FCE64FF0000804F11909F4E700293FF4A6
:105390008BAE0023CDE9020309AB009349EC108BDF
:1053A0002260CDF804A00DF123032846FFF72DFD60
:1053B000804648E62DE9F04791461F468A680B690A
:1053C000DDF820809342B8BF1346C9F8003091F849
:1053D000432006460C4612B10133C9F80030236859
:1053E000990642BFD9F800300233C9F80030256869
:1053F00015F0060507D104F1190AE368D9F8002071
:105400009B1AAB4228DC94F843302268003318BF63
:10541000012392062DD404F1430239463046C04799
:10542000013020D02368E568D9F8002003F0060396
:10543000042B08BFAD1AA36822690CBF25EAE575E5
:1054400000259342C4BF9B1AED184FF000091A348F
:105450004D451AD1002008E0012352463946304616
:10546000C047013003D14FF0FF30BDE8F087013570
:10547000C3E7E1185A1C302081F84300224494F815
:10548000451082F843100233C5E70123224639460E
:105490003046C0470130E6D009F10109D8E70000E5
:1054A0002DE9F04301F1430C0C46097E85B06E29CD
:1054B0001746064698460C9A00F0B38022D8632916
:1054C00036D00AD8002900F0B980582900F083802E
:1054D00004F1420584F8421032E0642901D06929C0
:1054E000F6D120681368050603F104012AD51B686C
:1054F0001160002B03DA2D225B4284F843206F48B1
:105500000A2239E0732900F09D8008D86F2920D045
:105510007029DDD1236843F02003236003E075295F
:1055200017D07829D4D1782384F84530644855E0E1
:105530001368191D1B68116004F1420584F842309C
:1055400001238CE01B68116010F0400F18BF1BB2E4
:10555000CFE713682568181D1060280601D51B6861
:1055600002E06806FBD51B8854486F2914BF0A2245
:105570000822002184F843106568A560002DC0F260
:105580009580216821F004012160002B3DD1002D80
:1055900040F08E806546082A0BD12368DB0708D5CA
:1055A000236962689A42DEBF302305F8013C05F1A9
:1055B000FF35ACEB05032361CDF800803B4603AA21
:1055C00021463046FFF7F6FE01304DD14FF0FF3057
:1055D00005B0BDE8F083394884F8451013682168A8
:1055E0001D1D1B6815600A060BD5CA0744BF41F094
:1055F000200121601BB9226822F0200222601022C3
:10560000B7E74D0648BF9BB2EFE76546B3FBF2F143
:1056100002FB1133C35C05F8013D0B460029F5D1AF
:10562000B9E7136825686169181D106028061B68B2
:1056300001D5196002E06A06FBD5198000232361B9
:105640006546B9E71368191D11601D68626800217D
:105650002846FBF78DFA08B1401B60606368236140
:10566000002384F84330A7E723692A4639463046A9
:10567000C0470130AAD023689B0713D4E068039B7E
:105680009842B8BF1846A3E701234A463946304638
:10569000C04701309AD00135E368039A9B1AAB42A8
:1056A000F2DCEBE7002504F11909F5E7002BACD19A
:1056B000037884F8423004F142056CE71673000861
:1056C000277300080EB400B59CB01DAB0290069085
:1056D0006FF00041094807910491094953F8042BE0
:1056E00005910068019302A901F054FA029B00227F
:1056F0001A701CB05DF804EB03B070471400002072
:105700000802FFFF2DE9F74F03690C69A3428046A9
:10571000C0F28280013C01F114074FEA840C00F1D1
:10572000140657F8245056F8240006EB0C030135F4
:1057300007EB0C090193B0FBF5F595B34FF0000AA8
:105740003846B646D34650F8042B93B205FB03A364
:105750004FEA134A9BB2ABEB0303120CDEF800B026
:1057600005FB02A213FA8BF34FEA124A1FFA82FBDF
:10577000DEF80020CBEB124202EB23429BB243EA5D
:10578000024381454FEA224B4EF8043BDBD256F8E8
:105790000C3033B9019B043B9E421A4630D3C8F803
:1057A0001040404601F020F8002825DB0135304646
:1057B0004FF0000C57F8042BD0F800E093B2ACEB9C
:1057C0000303120C13FA8EF3C2EB1E4202EB2342C8
:1057D0009BB243EA0243B9454FEA224C40F8043BEE
:1057E000E8D256F8242006EB84032AB9043B9E42F3
:1057F0001A460BD3C8F81040284603B0BDE8F08F16
:105800001268043B002ACAD1013CC5E71268043B78
:10581000002AEFD1013CEAE70020EEE7000000009B
:105820002DE9F04F57EC106B97B0456A069104468E
:105830000B921293DDF88080CDE900673DB910200E
:1058400000F0B4FD6062C0E901550560C560636A9F
:10585000196851B15A684A60012393408B60204611
:1058600000F0E0FD636A00221A603B1EBBBF23F01C
:105870000043019300230122ACBFC8F80030C8F8F0
:105880000020AF4BDDF8048033EA080314D1129AEC
:1058900042F20F731360009B23B9C8F31300002872
:1058A00000F04285219BDFF8ACB2002B00F044856C
:1058B0000BF1030300F03EBDDDE900670022002389
:1058C00030463946FBF7C8F8814668B1129A012381
:1058D0001360219B002B00F024859A4B219A03F141
:1058E000FF3B136000F028BD14AA15A947EC106B0C
:1058F000204600F0F0FFC8F30A550490002D7CD03C
:10590000C7F3130343F07F5BB2464BF4401BA5F291
:10591000FF35CDF84C9000228B4B50465946FAF794
:105920007BFC81A3D3E90023FAF72EFE80A3D3E901
:105930000023FAF773FC064628460F46FAF7BAFD2D
:105940007DA3D3E90023FAF71FFE02460B4630463B
:105950003946FAF763FC06460F46FBF76FF900225B
:105960008246002330463946FBF780F848B150465E
:10597000FAF7A0FD32463B46FBF76EF808B90AF18C
:10598000FF3ABAF1160F59D8704901EBCA01DDE9A7
:105990000023D1E90001FBF787F8002850D00AF175
:1059A000FF3A00230F93149B5D1BB5F1010849BF1B
:1059B000C5F10103002305934FF0000858BF05937C
:1059C000BAF1000F3EDB0023D044CDF838A0079396
:1059D000069B092B00F29080052BC4BF043B069365
:1059E000069BA3F10203CCBF00250125032B00F287
:1059F0008F80DFE803F07D7F3171DDE914531D44B2
:105A000005F23240202813DDC0F14000009B08FA67
:105A100000F805F2124023FA00F048EA0000FAF715
:105A200039FD01238246A1F1F87B013D139372E712
:105A3000009BC0F1200003FA00F0F0E70123B1E77A
:105A40000F90B0E7059BA3EB0A030593CAF100038F
:105A5000079300230E93BBE701230A930B9B002BB4
:105A600059DD02939946666A00227260042202F1AF
:105A700014009842716853D9204600F09FFC636A75
:105A80003060B9F10E0FD3F800B000F2E680002DBF
:105A900000F0E3809DED007BBAF1000F8DED107BEF
:105AA00074DD2A4A0AF00F0302EBC30393ED007B77
:105AB0004FEA2A16F0068DED087B65D5244BDDE90B
:105AC0001001D3E90823FAF789FECDE9000106F0B9
:105AD0000F0603251E4F4CE001230A930B9B5344F2
